:04000000020079324F
:01000B0032C2
:0100130032BA
:01001B0032B2
:03002300020217BF
:03002B0002023B93
:01003300329A
:03003B000202D2EC
:01004300328A
:01004B003282
:01005300327A
:01005B003272
:01006300326A
:01006B003262
:0300730002026620
:0300D200020076B3
:030076000200D5B0
:2000D500120552E4F55DF55EF553F5547508017509077582B412050B75081A750938758274
:2000F500B412050B75081675097F7582B412050B75081775097F7582B412050B75081E754A
:2001150009207582B412050B75081B75099F7582B412050B75080C7509017582B412050B7D
:200135007F007508007582B4C0071204DEAE82D0078E057E00C007C006C005120545E5821B
:20015500D005D006D00760ED8D828E83C0071201AA75820A120525D0070FBF050040C375B8
:2001750008017509037582B412050B7E007F00D2940EBE00010FC3EE940AEF940040F07E54
:20019500007F00C2940EBE00010FC3EE940AEF940040F080D6AE82E583FFC4540FF582C04C
:2001B50007C0061201FF120525D006D0078F82C007C0061201FF120525D006D0078E04EF48
:2001D500C4CCC4540F6CCC540FCC6CCC8C82C007C0061201FF120525D006D0078E821201FB
:2001F500FF12052575822C020525E582540FFF24F650088F0674372EFE800474302FFE8ED6
:200215008222C007C006C0D075D00030980685996B756C00C298C299AEA84306108EA8D021
:20023500D0D006D00732C0E0C007C006C0D075D0007401F56D255DF55DE4355EF55E53C868
:200255007FAEA84306208EA8D0D0D006D007D0E032C020C0E0C0F0C082C083C007C006C0E4
:2002750005C004C003C002C001C000C0D075D000E554B55302801FE5542421F987990554F3
:20029500AE547F007508328F098E828F831205FDAE82AF838E5453917FAEE64306808EE6D3
:2002B500D0D0D000D001D002D003D004D005D006D007D083D082D0F0D0E0D02032C0E0C056
:2002D500F0C082C083C007C006C0D075D000AEC05306F07F00BE8005BF00028065BEC00590
:2002F500BF0002801ABEE005BF000280030204A88555C253C2FEE55A42C2C2C50204A830A2
:20031500C139AF5CBF0002802ABF0102801CBF0202800EBF040280030204A8755C030204D9
:20033500A88558C2755C010204A88557C2755C000204A8D2C47559000204A8D2C4D2C50283
:2003550004A8E55CFF24E250030204A8EFF5F0240B83F582E5F0242283F583E473A8A8A833
:200375009EA8A8A8A8A8A8A8A8A8A8A8A8857861543D30282008FAE2D4BCAE04040404044D
:200395000404040404040404040404040404040404040404030303030385C25F75600075F9
:2003B5005C1CD2C10204A8855F60755F00AEC27F00EE425FEF4260755C1BD2C10204A88596
:2003D500C261756200755C1AD2C10204A8856162756100AEC27F00EE4261EF4262755C19C7
:2003F500D2C10204A885C263756400755C18D2C10204A8856364756300AEC27F00EE426354
:20041500EF4264755C17D2C10204A8755C16D2C10204A8755C15D2C10204A885C265756633
:2004350000755C14D2C1806B856566756500AEC27F00EE4265EF4266755C13D2C18054852F
:20045500C267756800755C12D2C18047856768756700AEC27F00EE4267EF4268755C11D241
:20047500C1803085C269756A00755C10D2C1802385696A756900AEC27F00EE4269EF426AF7
:20049500755900C2C1D2C4800A85C256C2C1D2C4755900C2C0D0D0D006D007D083D082D00E
:2004B500F0D0E032E55970FC7555D0755C0175573B755901755A00D2C5E55970FC755C1D6B
:2004D500755901755A01D2C522AF82E55970FC8F55755C01850857755901755A00D2C5E520
:2004F5005970FC755C04755901755A01D2C5E55970FC85568222AF82E55970FC8F55755C5E
:2005150002850858850957755901755A00D2C522AF82E5532421F8A6070553AE537F007503
:2005350008328F098E828F831205FDAE828E5322E554B5530475820122758200227597DE09
:200555007597AD75A90075D4CF75A51075D53F75E10575E3C0759810758E0875C80075890E
:2005750022758850758CF5758A80758D96758B9675C80475CC0075CDD875CA0075CBD875EC
:1B05950091047594007595FC7592007593FC75C1C475AC0375A8B075E68122B3
:0600A800E478FFF6D8FD2C
:200086007900E94400601B7A00900637780175AA00E493F2A308B8000205AAD9F4DAF275CF
:0200A600AAFFAF
:2005B000E508450960467A01E50825E0F508E509334012F509E5829508E583950940030A18
:2005D00080E6C3E50913F509E50813F508C3E5829508F5F0E58395094005F58385F082C3BD
:0D05F000E50913F509E50813F508DAE12225
:2000AE007800E84400600A790175AA00E4F309D8FC7800E84400600C7900900001E4F0A346
:0400CE00D8FCD9FA87
:0D00790075816D120633E58260030200768A
:2005FD00C2D5E58330E70DD2D5E4C39582F582E49583F583E50930E70BE4C39508F508E436
:16061D009509F5091205B030D50BE4C39582F582E49583F5832289
:0406330075820022AA
:00000001FF
